:10000000C02000207D1F0000CD740000691F00008B
:10001000691F0000691F0000691F00000000000048
:10002000000000000000000000000000E9200000C7
:10003000691F00000000000085200000691F00000B
:1000400099220000992200009922000099220000C4
:1000500099220000992200009922000099220000B4
:1000600099220000992200009922000099220000A4
:100070009922000099220000992200009922000094
:100080009922000099220000992200009922000084
:100090009922000099220000992200009922000074
:1000A0009922000099220000992200009922000064
:1000B0009922000099220000992200009922000054
:1000C0009922000099220000992200009922000044
:1000D00099220000992200009922000053B94AB9E0
:1000E000002908BF00281CBF4FF0FF314FF0FF3040
:1000F00000F00CB8ADF1080C6DE904CE00F010F87A
:10010000DDF804E0DDE9022304B07047704700BF6A
:10011000034613F8012B002AFBD1181A0138704747
:100120002DE9F04786468C460846089E15467446DB
:100130001946002B40F0C2808542B2FA82F245D9BE
:100140004AB1C2F1200300FA02FC2EFA03F39540F3
:1001500043EA0C0C94404FEA154EA8B2BCFBFEF8E3
:10016000230C0EFB18CC08FB00F943EA0C4399451D
:1001700028D9EB1808F1FF3704D2994502D9A8F124
:1001800002072B44A3EB0903A4B2B3FBFEFC0EFB56
:100190001C330CFB00F044EA0344A04214D92C1990
:1001A0000CF1FF3304D2A04202D9ACF102032C447B
:1001B000241A43EA07401EB1D44000233460736020
:1001C000BDE8F0874746DDE76346F1E792BB431B96
:1001D00001214FEA154EAFB2B3FBFEFC200C0EFB23
:1001E0001C330CFB07F840EA0343984562D9EB182F
:1001F0000CF1FF3004D2984502D9ACF102002B4437
:10020000A3EB0803A4B2B3FBFEFC0EFB1C330CFBF8
:1002100007F744EA0344A7424ED92C190CF1FF33E7
:1002200004D2A74202D9ACF102032C44E41B43EAF6
:100230000040C0E7C2F1200320FA03F1954090404E
:100240002EFA03F303434FEA154EAFB2B1FBFEFCA7
:100250000EFB1C10190C0CFB07F841EA0041884505
:1002600004FA02F422D969180CF1FF3004D288454F
:1002700002D9ACF102002944A1EB08019BB2B1FB09
:10028000FEFC0EFB1C110CFB07F743EA01439F42E7
:100290000ED9EB180CF1FF3104D29F4202D9ACF118
:1002A00002012B44DB1B41EA004192E76046E3E791
:1002B0006146F7E76046A3E76346B7E7834206D99E
:1002C00016B9002108467BE7C6E900E0F9E7B3FA72
:1002D00083F78FB9834201D3724508D8BEEB02047D
:1002E00060EB030301209C461EB9002168E73846F5
:1002F000FAE7C6E9004CF8E7C7F1200CBB4022FA48
:100300000CF41C432EFA0CF120FA0CF3B840014314
:100310004FEA14490EFA07F5B3FBF9F81FFA84FE09
:1003200009FB18300B0C08FB0EFA43EA00439A4510
:1003300002FA07F240D9E31808F1FF3004D29A45D7
:1003400002D9A8F102002344A3EB0A0389B2B3FB4C
:10035000F9F809FB183308FB0EFE41EA03418E450C
:100360002CD9611808F1FF3304D28E4502D9A8F1C7
:100370000203214443EA0040A0FB0298A1EB0E01D6
:100380004145CE46434602D306D14D4504D2B9EB92
:10039000020E68EB04030138002EA6D0B5EB0E0266
:1003A00061EB030101FA0CFC22FA07F34CEA0303A8
:1003B000F940C6E9003198E74046C5E74346D9E72A
:1003C00008B5094A0948032106F0B7FF04F088FC84
:1003D000074A0648032106F0B0FF00214FF4004011
:1003E00007F004FDF9E700BFAC850000B48200000F
:1003F000BB8500002DE9F04F91B08407009302F017
:1004000004030293C2F3C20303F10103DDF8688021
:10041000039205460E46059340F0BA81041D30B1A3
:10042000072909D86FF01B0011B0BDE8F08F01F06B
:1004300007063444C6F10806009B4FF00009591E18
:100440004FF0040A4FF0FF330193CDF810904F4660
:10045000CB4653460DB1009A22600598002800F360
:10046000E8809848009A824203D397488242C0F0BD
:10047000E080039AA4EB050E92074FEA9E0000F17C
:1004800003810F2F00F2B180002D00F0058107F1EC
:1004900040020DEB020C019A0CF8200C0CF8102C09
:1004A000049801300490E7E07A285DD84B280ED8F4
:1004B000472859D829282DD8252852D054D8202863
:1004C0007AD02338D0F1000B4BEB000B74E04C38A2
:1004D0002E2849D8DFE800F0704848484848484886
:1004E000484848484B484848484848484859484B75
:1004F0004B595959704B6D487048184B18484882F1
:100500007F4B48484B487F0000204FF0000B4FF0D6
:10051000040A38E02A38C0B2012202FA00F010EAD8
:100520000E0F49D110F0625C2FD110EA020B43D0BC
:100530006046013C5444B4FBFAF40AFB04F4002D79
:1005400061D0A3EB050CA444B4453FF66BAF002883
:1005500068D1042B47D158F8043B236004340423AA
:100560002AE0019A013A01924FF0000B24E011F8C1
:10057000010C6C2834D111F8023C00206C2B83460E
:10058000C5D14FF0080A5346D3E708F1070828F011
:1005900007080734F8E802AB24F0070435B10698E1
:1005A0002044B0423FF63EAFC4E900AB08344FF000
:1005B000000B4FF0080A534611F8010F002878D0BD
:1005C000BBF1000F7FF470AF2528F5D1019B0133FB
:1005D00001934FF0010B4FF0040AECE7584694E703
:1005E00000208346A5E7082B02D06FF015001BE71B
:1005F00008F1070828F00708F8E80223C4E90023F7
:1006000008340823D8E768B9042B02D108F104089C
:10061000A4E7082BE9D108F1070828F0070808F13A
:100620000808EDE7059A013A059258F8042B009264
:1006300010E7039A900720D5A4EB050E4FEA9E0021
:100640004FF0010CBEF5007FCFD20F2FCDD8F5B102
:1006500007F140020DEB020EC0B2019A0EF8200C19
:100660000EF8102CBCF1000F3FF41AAF60F07F00C1
:100670000EF8200C09F101090137C5F10802043414
:1006800006924FF6DA7E97E74FF0000CDAE7BCF1FE
:10069000000F01D00136EFE7029802360028EBD1B7
:1006A0000098CDE90631FFF733FDDDE90631064458
:1006B000E2E7631BB3F5806F97D23DB9A6F108045A
:1006C000E018B1E648800000E4900000029A28603B
:1006D0009B082B709DF81030C2B1EB7085F802902A
:1006E000B9F1000F05D008A80022C5F1010C97420E
:1006F0000ED1C5F101030DF120084FF0000A01935E
:100700000DF1300B574512D1601B8DE66B70E5E79C
:1007100010F8013B190608D50CEB040EB64503F0A2
:100720007F033FF67FAE04F8013B0132DFE7B9F10A
:10073000000F03D098F90020002A17DB029BD3B1E9
:100740001AF80B2004F8012B0022019B1819104401
:10075000B0423FF667AE98F8000004F8010B00992C
:100760000392204607F0E5FB039A14440AF1010ABC
:1007700008F10108C6E798F8002055F822300093E8
:10078000029B45F822300098FFF7C2FC421CDCE7D0
:100790006FF00D0048E600BF2DE9F04F97B000AFB5
:1007A00090F802A0D7F880B03B62CBF3C0030446B8
:1007B000FA62BB61894641B9457800780AEB80004E
:1007C00020444D4517D8A0EB0409E378FB61BAF14A
:1007D000000F02D01BF0010F16D1FB6953BBFB6A5F
:1007E0001BB13A6A4946204698474D4628465C3731
:1007F000BD46BDE8F08F461C3046FFF789FC01304E
:10080000304409F10109DCE7237862687A62FA6A08
:100810009900796104EB8301002A40F000814D4684
:100820000E4601EB0A094FF000084E454CD101EB92
:100830000A0610E01BF0020FD1D023789A007A61EB
:1008400062687A62FA6A04EB8301002A77D14D4626
:1008500001EB0A0690461BF0050F0CBF0223012393
:10086000FB62FB6906EB430A0BF00203BB625645D1
:10087000BCD016F8021B16F8013C54F82390994B93
:10088000994502D3984B994536D3BB69002B40D08C
:10089000786A06F04BF900283BD0E9468AB06A46F0
:1008A000924B53617B6AC2E906314FF400731384A3
:1008B0008F4B42F8103F8F4800234FF4125100F045
:1008C00023FD023DCD46D2E716F8013BF96254F80C
:1008D0002300FFF71DFCD7F88430F96A01304BB1D3
:1008E000D7F8883098453EBFD7F8843023F81800F1
:1008F00008F10108054498E7BB6923B1786A06F05E
:1009000015F90028C9D11BF0010F05D1FB6AED1ABA
:10091000ADE7BB6A002BAAD04846FFF7F9FBD7F832
:10092000843053B1D7F8883098453FBFD7F884203A
:10093000431C22F8183008F10108054497E7BAF182
:10094000000F72D01BF0040672D0D046002607F1CB
:10095000480052463B61B96207F0EBFAB96A3B695D
:1009600001EB0A02BA62FA69F9695200FA60BA6ADE
:1009700002EB41023A610BF00202BA603A69B96ACD
:100980008A4257D162787A621BF0020F32440CBF60
:100990004FEA580100211BF0010FD2B240F09F80B6
:1009A0001BF0040F14BF40460020BB616270A070B2
:1009B000E1703A6A7969FB6A20469847051EFFF69E
:1009C00015AFBB6923707B6A6370FB69E3704146B6
:1009D0003A6AFB6A84F802A007F148009847B0F130
:1009E0000008C0F2BB807B693A6AA9EB0A01C91A08
:1009F000FB68C91AD7E90A0398470028C0F2B080FB
:100A0000A84408EB00054FF0000B07F1380AB34586
:100A100072D300213A6AFB6A08469847E6E65646D2
:100A20004FF0000807F1380093E75646D04697E7A5
:100A3000B04695E7BA6A12F8021BBA6212F8015C76
:100A4000284A54F82500904202D3274A90421ED3E8
:100A5000BA6932B1786A7B6006F068F87B68002872
:100A60008CD1BA6802BB08F1280207F1300C08F1FA
:100A70000100944407F1580252FA80F008F102088C
:100A80000CF8101C5FFA88F800F8105C76E7BA6979
:100A90003AB1786A7B6006F049F87B6800287FF4F9
:100AA0006DAF1BF0010F09D006F1280207F13000ED
:100AB000711C161806F8205CCEB25FE71BF0040F1D
:100AC0003FF45CAF08F1280207F1300008F10101A2
:100AD00002EB000808F8105C5FFA81F84EE700208E
:100AE00063E700BF48800000E4900000EB85000051
:100AF00004000001C48200001BF80A3087F8373078
:100B000054F82390D7F884302BB3D7F888309B451E
:100B100021D2D7F8843033F81B803A6AFB6A01216E
:100B200007F13700984700281ADB0544B8F1000F99
:100B300006D14846FFF7ECFA00F101081FFA88F8E1
:100B40003A6AFB6A414648469847002808DB054454
:100B50000BF1010B5BE74FF00008DEE7454645E689
:100B6000054643E6014B1860704700BFC0040020F3
:100B700080B505460E461746984605F01DF9034612
:100B800007F058FADFF81890044649F8003042465A
:100B900030463946A84754F8090001F05DFA00BF15
:100BA000080000002DE9F047058B04462807904611
:100BB00011D4022905F0070540F0CC80204606F04C
:100BC0004AFA78B10138218B042811D8DFE800F007
:100BD000C2106D85950001290CBF45F0100545F048
:100BE0002005258388F31188BFF36F8FBDE8F08758
:100BF00001F0070AAA4500F0A5800027B9463E4645
:100C0000A368002B00F0BC8041F00801218388F329
:100C10001188BFF36F8FA168002900F0BA800D68BA
:100C2000002900F0B680D1F80480334652462046B1
:100C3000C047002D76D02B6829461D46F0E701F00D
:100C400007035A1F012A1BD8002221F00701062B97
:100C5000276889B2C4E9002209D13B4603E0628BD0
:100C6000013262831B68002BF9D141F0020121831C
:100C7000204606F0F0F900287AD041F0200176E015
:100C8000042B0AD121F0070189B22183204606F006
:100C9000E2F910B141F020012183218B01F0070A14
:100CA000AA454FD00027B946AAE7236921F00701DA
:100CB00041F00601062DD3F8009021832DD1B9F122
:100CC000000F3FD041F00801218388F31188BFF362
:100CD0006F8F3A492046C84729E021F00701236970
:100CE00041F0040189B2042DD3F804902183E6D0A9
:100CF00000273E464FF0040A82E721F007012369EE
:100D000041F0050189B2052DD3F808902183D6D092
:100D100000273E464FF0050A72E700273E464FF097
:100D2000060A6DE72B4687E7B9F1000FD1D1EFF343
:100D30001188202383F31288BFF36F8F238B23F056
:100D400008032383258BEA062ED525F01003238381
:100D500005F007056669218B002EBFF670AF0023F2
:100D60002768C4E9003321F0070141F00101218324
:100D7000218B01F0070AAA454FF000097FF440AF2C
:100D8000002F9CD041F00801218388F31188BFF324
:100D90006F8F002FC8D03D683946334652462046F3
:100DA00006F085F92F46F4E7AB067FF51BAF25F07B
:100DB0002003238305F0070500E700BFDB70000078
:100DC0002DE9F047DFF85880044607464FF0010947
:100DD00014B93846BDE8F08794FAA4F5B5FA85F55C
:100DE00009FA05F32E0108EB05156FEA030A24EA58
:100DF00003042B7B002BEBD058F806301B694BB952
:100E00004644042273682846196807EA0A0700F076
:100E100067FADDE7284698470028D9D1F0E700BFF8
:100E20001483000030B51049104889B0002207F043
:100E300058F80F4D0F4900220023CDE90623002466
:100E40000E23CDE90334CDE901440B4B00944FF45C
:100E50004072284604F018FD0849284606F030FF85
:100E6000204609B030BD00BF810E0000080B0020F5
:100E700080060020C00F0020851100009F86000022
:100E8000014804F0E7BA00BF6C0600202DE9F047E6
:100E900080461F480F4606F0CAF90646002830D0A3
:100EA00000252846BDE8F087237B6BB12368DB680B
:100EB0000BB12046984723681B69D3B963680422A5
:100EC0001968204600F00CFA013610344C45EBD37B
:100ED000B8F1000FE5D0002DE2D02846FFF770FFF3
:100EE0000546002FF7D000214FF4A47006F07EFFD6
:100EF000F1E7204698470028E0D00AFA06F31D43A0
:100F0000E2E7044CDFF8109005464FF0010ADDE7F8
:100F1000B00D00201483000034830000014B53F80F
:100F2000200070476C83000008B5034608462BB1CB
:100F3000044A136000F07EFC002008BD6FF015002D
:100F4000FBE700BFC404002010B5044C237813B99C
:100F5000034804F07FFA0123237010BD6C0F0020BA
:100F60006C06002010B504460B4806F060F95CB131
:100F7000BFF35B8F094B53E8001F013943E80012B0
:100F8000002AF8D1BFF35B8F054806F0B6FF05488D
:100F9000BDE8104004F05EBAA80D0020AC0D0020A2
:100FA000080B00206C0600200020064BBFF35B8F6F
:100FB000014653E8000F43E80012002AF9D1BFF3BD
:100FC0005B8F7047A80D002070B5FFF7EDFF084C50
:100FD000084E0546B44200D370BD63685B792BB1FF
:100FE00023685B6813B12946204698471034F1E71F
:100FF000148300003483000010B5044C04492046DB
:1010000005F0C2FE034B1C6010BD00BF1C06002093
:1010100058830000A00D0020084A094808B50023A5
:101020001370084A1360084A4FF400411360FFF739
:101030007BFFBDE80840FFF7DFBF00BF6D0F00205A
:101040002B720000A80D0020AC0D002001460022EC
:101050000148002305F0B9BE1C060020014805F038
:1010600052BF00BF1C060020024B0146186805F065
:101070009EBF00BFA00D0020014805F0D3BF00BFF8
:101080001C06002070B5284B187800284BD0FFF7BD
:10109000E5FF054690B1BFF35B8F244B53E8001F7B
:1010A000013943E80012002AF8D1BFF35B8F204CCE
:1010B000204EB4422DD32846FFF7D6FF1E4B1F4CBF
:1010C0001B68002B19DD06F00AFF4FF47A72A0FBB3
:1010D000020302FB0131C30BD4E9002043EA414380
:1010E0009B1A4FEAD13140F2E93261EB00019342A1
:1010F00071F1000101D3FFF767FFD4E9003213F566
:101100007A7342F10002C4E90032BDE87040FFF793
:10111000B3BF63685B7923B1236829461B68204607
:1011200098471034C5E770BD6C0F0020AC0D00204F
:101130001483000034830000A80D0020000B002061
:1011400070B50D4D297861B90120FFF79FFE0B4C5A
:101150000B4EB44206D3FFF795FF0028FBD10123C5
:101160002B7070BD63685B791BB1236820469B6858
:1011700098471034EDE700BF6D0F00201483000086
:101180003483000000212DE9F0470846FFF77EFE7A
:10119000044658B340F267684FF0000906F04AFF72
:1011A0001B4B1C4A1B58136033B11B4B1B68092B8C
:1011B00002DD1A4804F04EF9194FDFF860A000254F
:1011C00044B12046FFF7FCFD044618B94FF0FF3844
:1011D0004FF0FF39FFF756FF064628B9B5B942462A
:1011E0004B46504604F06AF93546E9E74FF0FF38C0
:1011F0004FF0FF39D2E72B689B691BB100221146E3
:10120000284698471035BD42F5D3E8E7054DFAE783
:1012100008000000A40D0020AC0D00206C0600208A
:10122000348300001483000013B5184805F0FFFF55
:10123000174B1B7873B1EFF31184202383F31288CB
:10124000BFF36F8FFFF71EFF84F31188BFF36F8F1B
:1012500002B010BD0F4B1B68002BF9D050B9002213
:101260000023CDE900230C484FF40042002305F091
:101270006FF8EDE70928EBD1074806F03EFE074876
:1012800002B0BDE8104004F0E5B800BFAC0D00208E
:101290006D0F0020A40D0020080B00206C0600201C
:1012A00010B5064B1B68044698472146A0600448C9
:1012B00005F00AFEBDE81040FFF7B6BFC4040020E9
:1012C0001C060020044A054B9B1AB1EBD30F34BF18
:1012D00052F8310000207047B482000014830000EF
:1012E000084BC31A10B41B114468013323714368BF
:1012F0009A7143681960436801225A7110BCFFF764
:1013000023BE00BF148300002DE9F04F8FB004AF5F
:10131000C1F34A28B8600D4691467B600C0DB8F1C8
:10132000000F63D0002607F114034FF0040B4FF0B9
:101330000A0AC7F80C80C7E907667E620193CDF8F8
:1013400008B0CDF800A007F11C03F9683246484602
:10135000FFF722FAB0F5006F03461CD36C468AB043
:10136000D9F8041004AB2648C3E9050140F2FF7127
:10137000D9611A464FF400711984224B42F8103F8C
:10138000214833464FF41251FFF7BEFFA5462C37D4
:10139000BD46BDE8F08FC0F30A0804F117001844F9
:1013A00020F0070080083B60FFF750FE68F35325EC
:1013B000044690B13B68154AC7E9083600F11001B0
:1013C00007F11403F961CDE900A3CDF808B0F9687D
:1013D00007F11C034846FFF7DFF968F353257B68E4
:1013E000B9682A46204605F058FFD0E704F11700F7
:1013F00020F007008008FFF729FE0446EDE700BF54
:10140000B486000004000001D48200006F72000066
:101410002DE9F04F87B0DDE91279DDE9105A044675
:10142000039193469846BFB1CDF800903B46524693
:1014300010210020CDF81490FEF7DCFFB0F5006F0E
:1014400006460AD3184A194840F2FF73022107B032
:10145000BDE8F04F05F07ABF3E4605F11700304475
:1014600020F0070004F007048008FFF7EFFD0BF001
:10147000070BE40044EA8B1444EA462444EA05548A
:10148000054640B13FB1CDF800903B46524631464B
:101490001030FEF7AFFF039943462246284607B0B7
:1014A000BDE8F04F05F0F9BEF3860000D4820000DD
:1014B000406820B1034BC01A40F3CF0070474FF093
:1014C000FF307047B48200000EB403B503AB014691
:1014D00053F8042B0448019301F064F802B05DF85E
:1014E00004EB03B0704700BF97730000CA0605D431
:1014F0008B064CBF02490349FFF7E6BF704700BFA8
:101500002C8700002B8700002DE9F04F89B09B4607
:10151000149B06939DF84CA0159B0593169B179E54
:10152000049304460D469046BAF1000F00F09D80EA
:1015300006F48073079305F098FE06F00209024650
:1015400000283ED091492046FFF7BEFF0746B9F17B
:10155000000F08D016F0440F35D18D492A46204699
:10156000FFF7B2FF074406F0010353B1894B8A49E4
:1015700053F82A20894B2046002A08BF1A46FFF755
:10158000A3FF06F48073002B49D006F00803002B5C
:1015900063D1B8F1000F66D0814942462046FFF77B
:1015A00093FF0546069B3D44002B6DD1049B002B09
:1015B00073D1F30700F1E48031462046FFF796FF30
:1015C000D8E00746C3E7774B18680028CAD0764BA7
:1015D0004FF47A791B68B5FBF3F54FF46163B5FB03
:1015E000F0F100FB115509FB05F54FF03C0CB1FB88
:1015F000F3F203FB1211B5FBF0FEB1FBFCF300FBB1
:101600001E550CFB131109FB05F50091B5FBF0F518
:101610006649CDE901E52046FFF756FFA2E706F04F
:101620000803EBB1624B634953F82A202046FFF7C9
:101630004BFF0546B8F1000F05D0594942462046F8
:10164000FFF742FF0544BBF1000FABD05A495A46A1
:101650002046FFF739FF0544A4E74FF0000BE1E710
:1016600006F00805E6E745469CE7BBF1010F069B3F
:1016700006D1002B64D1049B002B7BD000250CE00D
:10168000002BF8D04D485CE04D48069B4D49224662
:1016900005F01BFA049B002B68D0DFF82C81DFF8E3
:1016A0002C91049F3146102F204628BF1027FFF7AA
:1016B0001DFF4FF0000B5D4545DC059B49461A7840
:1016C0002046FFF701FF4FF0010B1BF0070F03D17E
:1016D00041462046FFF7F8FE5F453BD9059B49464A
:1016E00013F80B202046FFF7EFFE0BF1010BBBF1C7
:1016F000100FEAD1364920464FF0000BFFF7E4FE09
:101700005A46059B9A5CA2F120015F2928BF2E2230
:1017100030492046FFF7D8FE0BF1010BBBF1100F4B
:101720001DD01BF0070F03D141462046FFF7CCFE2A
:101730005F455A46E5D841462046FFF7C5FEEBE730
:101740001F485546A1E741462046FFF7BDFE0BF175
:10175000010BB0E720492046FFF7B6FEC5E7059B21
:101760003B440593049BDB1B04939AD1BAF1000F11
:101770007FF41FAF204609B0BDE8F04F05F0FEBD75
:10178000064A05492046FFF79FFE15E7338700000C
:10179000378700007C830000DA8D00002E87000070
:1017A0005C870000B80D0020B40D002040870000C9
:1017B000908300006087000066870000CD73000002
:1017C00097730000A5250000738700006B87000059
:1017D00075870000778700007187000073B542F2BB
:1017E0000F738B4228BF0B4605680F4A044605213C
:1017F000684604F001FE63680C495B6806460B22EC
:10180000284605F0ADFD63683246694628465B68A8
:1018100005F0A6FD636806495B681B22284605F0B3
:101820009FFD02B070BD00BFFA88000096870000DF
:101830007A870000074A00210123904206D8064A11
:1018400001B901231360054B1860704740085B0025
:101850000121F2E740420F00B40D0020B80D002036
:10186000014B01221A7070476E0F0020014B0020BF
:1018700019607047D00D00200148FFF7AFBF00BFCF
:10188000C083000010B5064B18680C46FFF746FBF6
:1018900021460346BDE8104002480F22184700BF0A
:1018A000D00D0020C0830000F8B5094D094B0A4E49
:1018B000D5E9004701221A700CB92C60F8BD214609
:1018C00030463A4600F01EF8241A0644F4E700BFFA
:1018D000C40D00206F0F0020700F002010B9074BBF
:1018E00018707047064B1B781BB141F2883006F028
:1018F00058B9A420002106F079BA00BF6E0F00206D
:101900006F0F00202DE9F047DFF878901E4F8046DA
:101910000E46042499F80050A5B906F0C7F83246DF
:1019200082464146284603F039F90546504606F0FE
:10193000C5F8E5B101233B7099F8003073B9304622
:10194000BDE8F08732464146002003F027F90546FE
:10195000EFE72046FFF7C2FF651E2C46002003F08C
:1019600061F90028EBD03B78002BF2D1E7E73B7818
:10197000002BE4D0013C2046FFF7B0FF3B78002B62
:10198000C8D1DCE76F0F00206E0F0020F8B5074FBD
:101990000D4604464618B44201D12846F8BD14F855
:1019A000011BBB6801485B689847F4E7D8800000DA
:1019B000014B0360002070470484000008B5044810
:1019C00005F0DBF8BDE80840024805F0D6B800BFD6
:1019D000EC870000218800002DE9F047064600AFA3
:1019E0000C46002936D0E9468AB0D1E90012A36836
:1019F0006D462148A8464FF0050AC5E90501C5E92D
:101A0000072348F810AF1D48424600234FF42151E8
:101A1000FFF77AFCCD46D4E903126369AD46184856
:101A2000C5F810A0C5E90501C5E90723134800233F
:101A300042464FF42151FFF767FCCD46E369114A56
:101A40000E48012105F082FCA3690F4A0B480121D1
:101A500005F07CFC012E07D1EFF305830B4A074804
:101A6000103B314605F072FC2146304603F08AFAFD
:101A7000BD46BDE8F08700BF4F880000F48200003B
:101A80007E880000AD880000BC880000EA88000065
:101A900030BFFFF7FDBF00BF2DE9F0410B4EDFF86F
:101AA000308006EB0807CC1B054632460949204624
:101AB00006F03FFAA01942460021083C06F047FA1A
:101AC0002C6707F10800BDE8F08100BF00000000AE
:101AD0000400000034830000074A936893F90E1055
:101AE000002907DB526993421FBF044A536843F041
:101AF00080535360704700BF340F002000ED00E0BA
:101B000070B5294C06460D462848294905F0E5FCE4
:101B1000A36AD9043CD52548264905F0DEFC1720E8
:101B2000A36A1A0504D52148234905F0D6FC1820DC
:101B30001D4CA36A9B0512D51C48204905F0CDFC1D
:101B4000A36BA26A100409D51D4A1848012105F0AB
:101B5000FDFB1EB1A36A23F40043A3621920124CBB
:101B6000A36A590504D51148164905F0B6FC1A2098
:101B7000A36ADA050ED50D48134905F0AEFC1B200B
:101B8000094A936A43F47F43936200232B7070BD2C
:101B90001620C5E7A36A9B04F2D504480B4905F05B
:101BA0009CFC1C20ECE700BF00ED00E0F48200008C
:101BB000FD88000013890000248900003789000097
:101BC0005089000065890000808900009889000024
:101BD00010B5204C2049214805F07FFCA36A9901EB
:101BE00036D51E481E4905F078FC1E20A36ADA018E
:101BF00004D51A481B4905F070FC1F20154CA36A38
:101C00001B0304D51548184905F067FC2120A36A79
:101C1000590304D51148154905F05FFC22200D4CED
:101C2000A36A9A0304D50D48114905F056FC2320F8
:101C3000A36ADB0304D509480E4905F04EFC2420B5
:101C4000044A936A6FEA03436FEA1343936210BD39
:101C50001D20CBE700ED00E0C7890000F482000002
:101C6000DF890000F28900000C8A00002A8A000047
:101C70004F8A0000698A00002DE9F843364D8046FE
:101C8000894636483649174605F027FCAB6ADE061A
:101C900027D53449314805F020FC1124AB6A1D07D3
:101CA00004D531492D4805F018FC12242A4DAB6AA1
:101CB000980718D52D49294805F00FFC6E6BAB6AC3
:101CC000190646D52A4A25483346012105F03EFB30
:101CD000B9F1000F03D0AB6A23F08003AB62132489
:101CE00003E01024DAE76FF015061B4DAB6ADA0744
:101CF00004D52049194805F0F0FB1424AB6A9B0673
:101D000004D51D49154805F0E8FB1524124B9A6AC5
:101D1000D50602D49A6A90070AD55B68190507D5DB
:101D20004146304600F072FA10B180F3098802246F
:101D3000094B9A6A920642BF5A6A22F400525A62CA
:101D40009A6A42F0FF029A6200233B702046BDE887
:101D5000F8836FF01506C2E700ED00E0F4820000A2
:101D6000948A0000AA8A000024890000DD8A00000D
:101D7000F58A00000B8B0000988900002DE9F041E6
:101D8000664B8AB0D3F8048000AF0446C8F3080558
:101D9000002686F31188BFF36F8F02F07F43B3F103
:101DA0007F4F07D102F00C03082B12D15C495D482C
:101DB00005F093FB002634460023FB71EB1E092B34
:101DC00000F28A80DFE803F00A80837C88888888B4
:101DD000888610074CBF0C460126EDE75249514852
:101DE0004E4D05F07AFB0023FB71EB6A9A0705D58F
:101DF0004E494C4805F071FB002332E0EB6A002BA2
:101E000001DA4B49F5E7EB6A5B00F5D549494548EE
:101E100005F063FB6B69A26943F480736B61BFF3E8
:101E20004F8FBFF36F8F6B6932F8022C23F48073EE
:101E30006B61BFF34F8FBFF36F8F4DF602739A4202
:101E400008D0AB6ADBB273B3FA1D01212046FFF75D
:101E500013FF37E02368384A3248012105F076FA4B
:101E60002368FA79DAB907F1080504F1200C206833
:101E700061682A4603C2083464451546F7D17A6A78
:101E8000002E45D0C2F3080121B96FEA52226FEA51
:101E900042227A6207F108011846FFF79DFD2837B4
:101EA000BD46BDE8F081AB6A13F47F4F04D0F91D45
:101EB0000120FFF725FE05E0AB6AB3F5803F9BD319
:101EC000FFF786FE0346CCE7FA1D0021BEE7F91DA9
:101ED0000020EEE719498CE7194A1A4B18F4F87FED
:101EE000E8468AB018BF13466A461749C2E9051387
:101EF0004FF400731384103D144BD56142F8103F2A
:101F0000084800234FF41151FFF7FEF9C54673E767
:101F100022F4FF7222F00102BBE700BF00ED00E0F7
:101F2000588B0000F4820000838B00009A8B000025
:101F3000BB8B0000C98B0000E88B0000048C000004
:101F40003F8B00002A8B0000288C00000400000159
:101F5000044B5A6942F010025A615A6922F0080291
:101F60005A61704700ED00E0EFF30880EFF309815C
:101F700001B57246FFF702FF01BD00BF002080F3EC
:101F80001488BFF36F8F0F4880F3088801F0FAFDC3
:101F900000200D490860BFF34F8F00F02BF8202080
:101FA00080F3118809484FF40461401880F30988D0
:101FB000EFF314800221084380F31488BFF36F8F7E
:101FC00000F0ECF8C020002094ED00E000130020A9
:101FD0000749D1F890200023C2F307221846934204
:101FE00000DB7047C1F89830C1F8A0000133F6E774
:101FF00000ED00E008B572B6002383F31388FFF705
:10200000E7FF144B4FF0FF32C3F88020C3F8842061
:10201000C3F88820C3F88C20C3F89020C3F894201C
:10202000C3F89820C3F89C20C3F88021C3F884210A
:10203000C3F88821C3F88C21C3F89021C3F89421F8
:10204000C3F89821C3F89C2162B6BFF34F8FBFF34A
:102050006F8F08BD00E100E0084B9B6883420BD105
:10206000EFF3058343B1064B5A6842F080525A6041
:102070005A6A22F400425A6203F0A4BE340F0020D0
:1020800000ED00E015498A684FF030001044EFF38E
:10209000098C80E8F01F202080F31288BFF36F8F37
:1020A0000F4F4FF000664A698A603E604FF070043F
:1020B000141920680B4C2060506F0023536780F385
:1020C000118804B5104600F005F9BDE8044002F19E
:1020D000300090E8F01F8CF309887047340F00201F
:1020E00004ED00E0F80D00201EF0040F0CBFEFF32C
:1020F0000880EFF30980816911F8021C0229FFD0E2
:1021000001B5724605F0DEF901BD00BF40B20028FE
:1021100007DB044A4109012300F01F00834042F815
:102120002130704700E100E040B200280CDB430999
:10213000064900F01F0020330122824041F823208D
:10214000BFF34F8FBFF36F8F704700BF00E100E018
:10215000054B420900F01F0053F82220012303FA27
:1021600000F01040704700BF00E100E040B20028DE
:10217000A8BF00F1604001F10101B8BF064B4FEA72
:102180004111ACBF00F5614000F00F00C9B2B4BF0F
:10219000195480F80013704714ED00E00B4A08B59D
:1021A0000B4B22F07F029A60BFF34F8FBFF36F8F0C
:1021B000D3F8882022F47002C3F8882002F0CEFF02
:1021C00003F020FF00F05CF803F00CF800000000C2
:1021D00000ED00E042F8203C009B42F81C3C0A491C
:1021E000019B42F8183C029B42F8143C21F001018B
:1021F0004FF0807342F8043C42F8081C0023203A58
:1022000002654367704700BF710B0000094A03462F
:10221000906870B113F1160F006E05D0A0F1400266
:102220009A4205D8834203D2814228BF00207047DA
:1022300000207047340F002008B51546094A0A4BA4
:102240009060026F1A600E4600F044F82C4686F348
:1022500009880020054B98472046002100220023D2
:10226000034C2047340F0020F80D0020EB740000D1
:10227000710B0000014B10221A61704700ED00E065
:10228000044800232021C2180133272B82F80013B1
:10229000F9D1704700E100E008B5EFF30583064A85
:1022A000103B02EBC30152F8330049688847BDE890
:1022B0000840FFF711BC00BF28810000024B034A11
:1022C0000348012100F08AB800000120000000202E
:1022D00004840000026E054B403A1A60044A402113
:1022E000C3E901121846012100F082B8FC0D00205C
:1022F00000000B1508B503461048D0F89020C2F333
:102300000722013A934207D90D480E4A012105F0F0
:102310001DF86FF0150008BDC0F898300A6822F06B
:102320001F021A4342F01002C0F89C208A6842F053
:102330000102C0F8A0201846EDE700BF00ED00E064
:10234000EC8200003F8C0000F0B50E4685B01F46C1
:1023500004460025B5420DDA606810B397B1431EFC
:1023600018420AD0104A11482B46012104F0EEFF12
:102370006FF01502104605B0F0BD1F28F2D9216894
:102380000B42EFD12368019305F0D2F8A36801A9AD
:102390000343D0B20393FFF7ADFF10F1160FE7D060
:1023A000421C01350C34D5E7658C0000EC8200003E
:1023B000044B0522C3F89420BFF34F8FBFF36F8FF8
:1023C000704700BF00ED00E0BFF35F8F024B0022BB
:1023D000C3F89420704700BF00ED00E010B5034C37
:1023E00001232278FFF7B0FF207010BD810F00207D
:1023F00008B50B4A00231278FFF7A6FF10F1160F5D
:1024000007D0084A0021D2F89030C3F3072398423E
:1024100000DB08BDC2F89800C2F8A0100130F2E756
:10242000810F002000ED00E02DE9F04357485849A6
:10243000D0F890300D68C3F307239D4285B000F2B9
:10244000A180FFF7C1FF49680022954201F10C010C
:102450001AD1504C504F25706846FFF7A9FADFF8A3
:102460003C81DFF83C9106460025AE421FD123781F
:1024700046490020D1F89020C2F3072293427BDB2B
:10248000FFF796FF00204CE0C0F8982051F80C3C74
:1024900023F01F03134343F01003C0F89C3051F89E
:1024A000043C43F00103C0F8A0300132CDE70098AE
:1024B00000EB05114FEA051CCB683B40B3F5000F5C
:1024C00044D00AD8B3F5001F2ED0B3F5800F34D016
:1024D000B3F5801F10D00135C7E7B3F1807F3ED040
:1024E000B3F1007FF7D150F80C3088684A6805F0E6
:1024F0001FF840F4802009E050F80C3088684A68E2
:1025000005F016F840F0885040F43020039001A9FF
:102510002078CDE90123FFF7EDFE002828DA6FF0DF
:10252000150005B0BDE8F08350F80C3088684A68A3
:1025300004F0FEFF40EA0800E8E750F80C30886835
:102540004A6804F0F5FF40EA0900DFE750F80C3074
:1025500088684A6804F0ECFF40F08270D6E750F8D3
:102560000C3088684A6804F0E3FF40F08870CDE7DB
:10257000237801332370AEE7C1F89830C1F8A0008A
:10258000013377E74FF0FF30CBE700BF00ED00E00D
:1025900010840000810F00200000F0FF00000811EF
:1025A00000000207F0B587B007460E46144600212A
:1025B000102268461D4605F0CAFC02238DF8023041
:1025C0002A46054B019321466846CDE9047603F07F
:1025D0003FFF07B0F0BD00BF5175000008B5024BCA
:1025E0001B689847002008BD080E0020034B044AD2
:1025F0001860937843F0020393707047080E002030
:10260000D004002008B50649064821F00701C1F1B1
:10261000005202F5803204F000FA002008BD00BF2D
:10262000472500200C0E0020044A0123C2F8403543
:102630004FF080420020C2F87835704700E001403A
:1026400020B1034B800143F001031847704700BFDE
:1026500050830000084B70B5C31A0D4607499B1004
:10266000044659430648402204F086FF2B460146A3
:102670002046BDE8704018472C0E0020B76DDBB631
:10268000B080000073B50C4C0C4A4023041B00932F
:102690000D460B460A49A41061430646094804F05A
:1026A00096FF011E05DA30462B4602B0BDE87040A9
:1026B000184702B070BD00BF2C0E00203776000016
:1026C000B76DDBB6B0800000002270B50121044672
:1026D0001046FFF74BFD0F4801F03CFC0E4B9842B3
:1026E00015D101F047FC26690C49304604F002FD83
:1026F00000280BDB012535642469084904F11C001E
:1027000004F0F8FC002801DBE564002070BD6FF0E8
:102710000400FBE7712800000000AD0B30840000CE
:102720001FB500220123CDE90223094ACDF800D0CC
:102730006B46CDF804D004F077FF002805DB4FF49A
:1027400080420023684602F0B9FE05B05DF804FB44
:102750004F76000010B5074C23782BB94FF4A570C5
:1027600005F01FFA01232370BDE81040002001F09E
:1027700013BC00BF820F002010B5EFF3118420239B
:1027800083F31288BFF36F8F074A136823F00201A7
:10279000DB07116002D4012005F099F884F3118859
:1027A000BFF36F8F10BD00BF7C0E002030B4104B04
:1027B0000C2202FB003301460020D3E90E5298633D
:1027C000EFF31180202484F31288BFF36F8F1C6C09
:1027D00004F0C00444F002041C6480F31188BFF3C9
:1027E0006F8F1DB12B46034830BC184730BC704773
:1027F0002C0E0020B080000010B4EFF311822023D3
:1028000083F31288BFF36F8F1748016841F0020409
:102810000460C80707D482F31188BFF36F8F0120CB
:1028200010BC01F0B9BB4FF08041D1F80C04D1F8D5
:102830000C14C907EFD5EFF3118083F31288BFF3AF
:102840006F8F0A490B6C03F0C00343F002030B6463
:1028500080F31188BFF36F8F82F31188BFF36F8FFE
:10286000002010BCFFF7A2BF7C0E00202C0E002021
:1028700010B1012804D07047034B1B6C5B0701D1DA
:10288000FFF794BF704700BF2C0E00202DE9F041E8
:102890003849BFF35B8F0746012251E8003F41E80A
:1028A00000200028F9D1BFF35B8F33B93249334898
:1028B0004B60CB608A6004F030FC7B1E012B2BD870
:1028C000012F07D14FF08043D3F81C3403F00303EA
:1028D000012B21D005F0EEF90546F8B9284B1B78FD
:1028E000E3B14FF080430222C3F808230646DFF825
:1028F00094804FF08044D4F81824D4F81834D203CC
:1029000015D503F00303012B01D0012F0FD155B3CF
:1029100086F31188BFF36F8FBDE8F081EFF3118666
:10292000202383F31288BFF36F8F0125DFE7ADB15A
:10293000304604F0EEFDD4F81835002BDBD1D4F886
:102940000421002AD7D0C4F80431D4F8043101237B
:10295000C4F81835C8F88031A360CCE700212120E5
:1029600005F044FAE7E74FF080430222C3F804235E
:10297000D2E700BF280E0020180E0020480E0020CD
:10298000860F002000E100E008B5074805F00EF9C9
:1029900038B10648FFF72AFE0448FEF7E3F80020A6
:1029A00008BD6FF01200FBE7D8800000B1290000DD
:1029B0000A2838B5074D044604D1AB680D215B6881
:1029C00028469847AB6803485B68E1B298472046C1
:1029D00038BD00BFD880000038B545682B69B3B159
:1029E0001035284601F0DEFD044680B90146284630
:1029F00001F0A4FD084B98420BD108492246284615
:102A000001F084FD224605210620FFF7AFFB0020E0
:102A100038BD6FF00400FBE70000AD0B212A000079
:102A2000430970B507D10B4B596821B101250C68DA
:102A3000094E854001B970BD8A682A4002D04B68B2
:102A4000304698471CB1236821461C46F2E72346CE
:102A5000FAE700BF800E0020C48000002DE9F0439B
:102A6000476840F20636D0063B7B87B002EA06068E
:102A700054BFC2F34010032001F01F05B6F5837F59
:102A8000144645EA43158DF8030043D00FD8062EAF
:102A900018D007D8B6B1022E3ED06FF0150007B09F
:102AA000BDE8F083B6F5807FF7D101260AE040F259
:102AB0000222964232D0B6F5407F31D0B6F5007F83
:102AC000EBD102260123220303FA01F12AD57B6808
:102AD000C3F808153B695BBB05F01F026D0974D193
:102AE000920002F1A04284F48031D2F80037C1F3A1
:102AF0000041C4F3404423F4E16344EA410423F079
:102B000007031C4344EA800444EA0624C2F8004751
:102B10000020C4E70726D5E70426D3E70526D1E73A
:102B20000326CFE7630344BF7B68C3F80C15D1E7E6
:102B300010370DF102022946384601F0EDFC14F47D
:102B4000403F80460CD12946384604F032FF214BE5
:102B50009845DDD19DF80210384601F02DFDD7E7EC
:102B600001AB4FF0000903AA29463846CDE90439E4
:102B7000CDE90199CDF80C9001F0A2FB154B9842DC
:102B80008BD114F4003315D09DF803308DF80E303E
:102B900084F48034C4F300444B4603AA29463846E3
:102BA0008DF80C608DF80D4001F03AFC094B98420D
:102BB000CDD072E7CDE9043303AA0DF10303294612
:102BC0003846039301F07CFBF0E702F5E07253F81E
:102BD0002230FFDE0000AD0BF0B54068057B01F050
:102BE0001F0444EA4514056987B0002D60D0B2F592
:102BF000001F00F1100506D12146284604F0DBFE37
:102C0000002007B0F0BD01AE0027B2F5800F01979C
:102C1000776038D1B3F1007F14BF052304238DF80A
:102C200004300023CDE904630393836823FA01F1A0
:102C300011F0010119D1B2F1A07F16D104F01F03E8
:102C4000620903F5E07339D14FF0A04252F8233006
:102C5000DB070AD40DF1030632462146284601F06F
:102C60005BFC184B984219D0029603AA21462846CD
:102C700001F026FB144B98421DD101222146284623
:102C800001F0A6FCBCE7B3F1C06F05D0B3F1007F43
:102C900014BF01230223C2E70323C0E731462846BD
:102CA00001F090FC084B9842DED06FF00B00A8E7D3
:102CB0006FF08500A5E76FF01500A2E751F823300B
:102CC000FFDE00BF0400AD0B0000AD0B2DE9F043AB
:102CD0005B4E5C4F00EB810140F2FF15814202D157
:102CE0000020BDE8F083046814F4804FC4F3C32CC3
:102CF000C4F3080340F09080240E16F80CC0AB42D9
:102D000008BF4FF0FF33192C00F28980DFE804F090
:102D10000D13191C1F251C878787873663878787B4
:102D2000878787878787667B7E81C2F80C355C1C26
:102D30005ED10430D2E7C2F814355C1CF9D000240F
:102D40005FE0C2F80835F2E7C2F81035F5E75C1C21
:102D5000C2F80835EDD0002404E05C1CC2F80C3544
:102D6000E7D001245FEA531E5CD14FF001084FF019
:102D7000A04E08FA03F9CEF80C950AE0C2F808351F
:102D8000BCF1000FD9D15C1CD3D00024A0464FF079
:102D9000060CD0F8009009F4004EBEF1000F1CBFE5
:102DA0004FF00008012403F01F0E5B0942D14FEAE7
:102DB0008E0E0EF1A04EC9F34129DEF800373B40DC
:102DC00043EA890343EA0C2343EA080343EA440342
:102DD000CEF80037ADE7C2F80C35D1E7C2F8603560
:102DE000B3F1FF3F0468A4D0C4F30044002CB8D072
:102DF0005C091BD101244FF0A04E04FA03F8CEF871
:102E00000885A046C5E7C2F86435E9E7C2F8683529
:102E1000E6E7C2F86C35E3E76FF0150061E76FF0A5
:102E200085005EE70023C3F80C35FFDE0023C3F8FE
:102E30000835FAE70EF5E07E002353F82E30F4E76C
:102E4000D28C0000F0F8FCFF2DE9F0410446476801
:102E50000D4604F02FFF4FF0200888B9264B1B7851
:102E600073B16426606804F077FCF0B9012004F0C7
:102E700020FD013EF6D10021212004F0B7FFF0E74C
:102E8000EFF31186314688F31288BFF36F8F6068C5
:102E900004F062FCA8B986F31188BFF36F8FEFE7E7
:102EA00086F31188BFF36F8FE5E7EFF311863146A4
:102EB00088F31288BFF36F8F606804F04DFC002820
:102EC000EED0BB691D706368BA691B680020C3F847
:102ED00044250122C3F84825C3F82001D3F8204136
:102EE000C3F85801D3F858019A6081F31188BFF3F1
:102EF0006F8FBDE8F08100BF860F0020F7B5054653
:102F0000002201210220FFF731F90220FFF7FEF82D
:102F10006B6819681A69C1F824255A7D1B7D134313
:102F2000C1F86C356E68D6E9004313F0010350D048
:102F30002F6907F1080004F0C8FC334B984208D011
:102F40003248334A012104F0F8F96FF0040003B06D
:102F5000F0BD387A04F10C0204F5907104F0ABFC7A
:102F6000387A012707FA00F000F08CFF0823C4F834
:102F70000035B369C4F844350023C4F84835A76068
:102F8000D4F85831002BFBD00021C4F800156B6831
:102F9000DC6801AA204604F0B2FB002805DB019B97
:102FA000226819791868FFF791FE6A68136808218A
:102FB000C3F80015117A51B9D269C3F8342501223A
:102FC000C3F83825C3F81011D3F810111A60002087
:102FD000BDE70822C4F80025B269C4F84425C4F846
:102FE00048350123A360D4F82031002BFBD0002307
:102FF000C4F82031D4F820310123E3604FF480730A
:10300000C4F80433BCE700BF0000AD0B0C83000024
:10301000DA8C00002DE9F04383B045680669D5F8E5
:10302000208000AF3A1D0021404604F068FB041EDA
:103030001ADB7B68D8F8002019791868FFF746FE7C
:10304000041E11DB696A481C1BD005F1280000F042
:10305000F1FA10F1130F04460BD1314A3148012126
:1030600004F0ABFB6FF0120420460C37BD46BDE800
:10307000F083411D05D12C4A2A48012104F09DFB13
:10308000F2E7EB699847B5684FF00108D6E90232DC
:1030900003EBC2039D4204D3304604F0C1FB00247D
:1030A000E2E7286804F082FD0346B0B92A6829796E
:1030B00010686C468AB06A461C4DD1614FF40071AD
:1030C00011841B49C2E9055042F8101F15484FF4FE
:1030D0001151FEF719F9A546C4E728682979EB884C
:1030E000D0F810C0D0F80890DCF80040DA0754BFE0
:1030F00043F4B01383F4D01323F4801208FA01FED2
:10310000DB074CBF44EA0E0424EA0E04CCF800406E
:10311000D9F800309847041EA6DB0835B6E700BF93
:10312000178D000004830000428D00005F8D0000B9
:10313000040000017FB50546406829698A6C0B6D63
:103140000ABBABB14C6C8B6516461A46C96C029132
:10315000CDE9004611B3002B18BF13460022694683
:10316000039301F05DFC0E4B98420AD06FF004030C
:103170002C69236304F1200002F06CF9002384F829
:103180005C3004B070BD4C6C13B19A4228BF1A4633
:10319000002C8A6514BF16460026D7E70B46DDE7EC
:1031A0000000AD0B38B503780C4663B98D6D5DB981
:1031B0004B6D1C696FF07303236304F1200002F070
:1031C00049F984F85C5038BD8B6C33B19D4213D9FA
:1031D000224A2348012104F0F0FA236DA26D33B195
:1031E0009A4221D91D4A1E48012104F0E6FA606D79
:1031F000BDE83840FFF79EBF5B1B8B6473B94B6B18
:1032000008334B638B6B013B8B6301F1480204F184
:103210003400383104F0DDFA6064DEE74B6C002BDB
:10322000DBD02B444B64D8E79B1A23657BB9E36B57
:103230000833E363236C013B236404F1500204F17F
:10324000400104F13C0004F0C4FAE064CFE7E36C11
:10325000002BCCD01344E364C9E700BF838D00008A
:10326000048300002DE9F04F8BB000AFC7E90232B4
:1032700043687B608B8804699E048046894630D40D
:103280004FF0FF324FF0FF3304F1100002F016F957
:10329000C4F80490D8F810A0D8F804B09AF85D30BB
:1032A00023B1DAF80030994500F0D380B9F8046012
:1032B00016F400631CD0B44AB448012104F07DFA2E
:1032C0006FF0850523689B8813F4005304D1636075
:1032D00004F1100002F0BEF828462C37BD46BDE8C8
:1032E000F08FA369002BCBD163689942C8D1D1E795
:1032F000F50716D56D4688B0D8F800106A46A44880
:10330000C2E905014FF400719183A24942F8101FF0
:103310009E484FF4E251FDF7F7FFAD466FF01505FB
:10332000D0E7300705D59C4A9848012104F045FABA
:10333000F4E7C6F34513082B01D0984AF4E7D9F80F
:103340000050974B9D4201D8964AEDE70BF1080ECD
:10335000BEE80F0007F1140CACE80F00DEF80030F7
:10336000CCF80030904B9D4252D9904B9D4252D99F
:103370008F4B9D4252D98F4B9D4252D98E4B9D42CD
:1033800052D98E4B9D422CBF4FF000454FF08045E7
:10339000B107FD6106F0040349D5002B14BF0323D8
:1033A000022387F82030C6F3001387F82130DBF8BA
:1033B0000030D3F8082516F0020FC6F340014FEA9B
:1033C00052104FF0010336D1002840F02B8193407A
:1033D0004FF0A042C2F80C359AF85D302BB1584638
:1033E00001F0E6FA00238AF85D30754A534607F18A
:1033F0001401584601F0A8FA724A9042034623D0BD
:10340000714A6248012103F0A1FF6FF0040559E7FA
:103410004FF00075BCE74FF08065B9E74FF00065ED
:10342000B6E74FF08055B3E74FF00055B0E7003BEB
:1034300018BF0123B5E7002840F0F78093404FF014
:10344000A042C2F80835C7E701238AF85D30CAF800
:103450000090012384F85C307B68596A4A1C0AD0CA
:1034600003F1280000F016F9743004D1574A474898
:10347000022104F0A2F9FB68002B75D163630023DD
:10348000A36304F1480204F1380104F1340004F0AC
:10349000A0F9BB686064002B6ED1E3630023236452
:1034A00004F1500204F1400104F13C0004F091F9F0
:1034B000E06420680023236348B183683BB10121A5
:1034C000083004F099F92368186904F06AFB404653
:1034D000FFF730FE0022A06B134683427AD100230F
:1034E000256C1946A9427CD19342264638BF134623
:1034F0004FF4FA5202FB03F556F8203B4FF4004C10
:103500001B68B5FBF3F540F2E730C83500214FF4F6
:103510007A720023E5FB0C01FCF7E0FD02460B4646
:10352000304601F0CBFF002862D0294A174801211C
:1035300004F043F94FF000097868C4F8589001F09E
:1035400037FA84F85D90D8F810506FF07308C5F81A
:10355000308005F1200001F07DFF85F85C90304659
:1035600001F0D2FF454647E0FB681B686363002B10
:1035700085D0FB685B6883E7BB681B68E363002B4F
:103580008CD0BB685B688AE7A18D000004830000D3
:10359000BB8D000003000001DD8D0000FC8D0000EC
:1035A00047E801002B8E00008FD003001FA1070009
:1035B0003F420F007F841E00FF083D0000127A008A
:1035C000A53100000000AD0B5C8E0000838E000072
:1035D000AD8E0000616B01EBC301013349680A4401
:1035E0007BE7E06B00EBC10001314068034479E701
:1035F000256B15F1740F9DD02368002B3FF462AE4C
:103600009A68002A3FF45EAE998811F480567FF4E0
:1036100059AE186904F0C5FA20683146083004F044
:10362000EBF84FE6C1F80C15FFDE0023C3F80835B0
:10363000FAE700BFF0B587B001238DF8023002230E
:103640008DF804306B4403930F4601AB0DF1030179
:103650000024049305460291059400F0B3FF0C4B3F
:10366000984206460FD103AA3946284600F028FEA4
:10367000B0420BD09DF80310284600F09DFF6FF07C
:10368000040007B0F0BD6FF01200FAE72046F8E73B
:103690000000AD0B2DE9F0410D46064604F08DF912
:1036A000002207462946304600F092FF6B0905F0DC
:1036B0001F0429D1A40004F1A044164BD4F800271C
:1036C000134043F00C03C4F8003704F0DFF88046E1
:1036D0003368DB597BB100273046294604F06BF98B
:1036E000D4F800270B4B134043F00403C4F8003711
:1036F0003846BDE8F08104F0C9F8A0EB08000628C0
:10370000E6D96FF07307E7E704F5E074002353F898
:103710002430FFDEF0F8FCFF70B5012383400E4A31
:10372000BFF35B8FDC4352E8001F01EA040542E867
:103730000056002EF7D1BFF35B8F4FF480328240EA
:103740000648C0F80823BFF35F8FBFF36F8F0B42AB
:1037500014BF0120002070BD9C0E0020001001400D
:1037600070B40E49D1E90034D01AC31844F10004F2
:1037700022F07F46C1E90034A6F50013B3F5400FEF
:1037800009D2074B1B681A0A1B069C19054B42F10C
:103790000005C3E9004570BC02F0F4BC500B0020EA
:1037A000A00E0020580B002011B3BFF35B8F012344
:1037B000104A834052E800CF4CEA030C42E800C1B3
:1037C0000029F7D1BFF35B8F0B4A4FF4803383405E
:1037D000C2F80433094BBFF35B8F1B68BFF35B8FE9
:1037E000C340DB0742BF064B4FF40032C3F8002151
:1037F000704700BF9C0E002000100140980E002072
:1038000000E100E00D4B1868010A0006BFF35F8F6E
:103810000B4BD3F80435181841F10001B3F5801FA4
:103820000AD2084BD3E90023904271EB030303D281
:1038300010F1807041F10001704700BFA00E002020
:1038400000100140580B00202DE9F04F85B01646BE
:103850001F469DF840A00446FFF75EFF0190FFF76A
:10386000D1FFB04271EB070354D23E4B301A67EBE5
:103870000101984271F100014FD23B4B03EB04135D
:10388000D3E902239F4208BF96425ED037494FF4E6
:10389000803804F1500508FA04F8AD00C1F84883F7
:1038A0002046ADB203F0E6FF26F07F4B05F18045E0
:1038B00004F5A87305F58835DC464FF0030902933B
:1038C000029A2CF07F4341F82230C1F84483D1F8AA
:1038D0000435274A6FF00200C01A604420F07F4090
:1038E000904232D9286868B1D1F804350393A3EB2C
:1038F0000B0020F07F40B0F5000F26D9204603F0E2
:10390000B9FF039BBAF1000F07D109EB030C09F1D2
:103910000109D5E7BAF1000F09D06FF0150520466F
:103920000199FFF741FF284605B0BDE8F08F01235C
:10393000104ABFF35B8FA34052E8000F184342E8E0
:1039400000010029F8D1BFF35B8F07490E982301CE
:1039500001EB0412C8500F9B5360C2E902670025B7
:10396000DDE700BF01008000400B00200010014097
:10397000FDFF7F00980E00207FB51C4C1C4BC4F847
:103980000833C4F848331B4B00254FF0FF304FF08D
:10399000FF31C4F80855C3E902014FF48033C4F87D
:1039A0000433154B02264FF400320121C4F804639E
:1039B0001120C3F880212A46FEF7D8FB1120FEF71C
:1039C000A5FB0E4A0123A360236013600C4B0D4A34
:1039D0000093CDE9015500232846FFF735FF304617
:1039E000FEF754FF284604B070BD00BF0010014030
:1039F00003000F00400B002000E100E09C0E0020BF
:103A000061370000FFFF7F002DE9F7432F4CD4F80A
:103A1000043399070BD5D4F8043143B12C4A002361
:103A2000C4F80431D4F80431136801331360D4F8B6
:103A30000433DA0329D5BFF35B8F264B53E8002FFD
:103A400022F0010143E800100028F7D1BFF35B8F9B
:103A5000D30702D4D4F84031BBB10025C4F840519B
:103A6000D4F84031FFF7CEFEEFF31182202383F329
:103A70001288BFF36F8F184BD3E90267B042B94188
:103A800006D282F31188BFF36F8F03B0BDE8F083D5
:103A90004FF0FF384FF0FF39C3E90289D3E9001036
:103AA0001D604FF48033C4F84833C4F84051D4F853
:103AB000403182F31188BFF36F8F0029E5D0009069
:103AC00032463B4628468847DFE700BF00100140EA
:103AD000A00E0020980E0020400B002030B5431CA3
:103AE000124C85B005D08442A8BF0446012CB8BF53
:103AF0000124FFF787FE0E4B0C4DD3E90013401A4B
:103B0000B0F5000F10D22218AA4228BF2A46521838
:103B10004FF0000007490091CDE9010043F1000397
:103B2000FFF792FE05B030BD2A46F0E7FFFF7F00A9
:103B3000500B00206137000008B5FFF763FE024B11
:103B40001B68C01A08BD00BF500B00204FF0704327
:103B500093F8E02F062A09D1D3F8E83FC3F3031303
:103B6000033B042B02D8024AD05C70470020704708
:103B7000098F0000024AD2F80034002BFBD07047B6
:103B800000E0014010B503F085FE40B14FF08053D6
:103B90008E4AD3F82433C3F30423C2F84035FFF729
:103BA000D5FF10B18A4B8B4A5A6703F073FE48B1B8
:103BB0004FF080534FF08042D3F84432C3F3423386
:103BC000C2F83C35FFF7C2FF30B1834AD2F8FC306F
:103BD00023F08073C2F8FC3003F05CFE40B14FF07C
:103BE00080430022C3F80C21C3F81021C3F8382504
:103BF000FFF7ACFF20B14FF080430322C3F8A025AC
:103C0000FFF7A4FF60B1754B0522C3F8102601220F
:103C1000C3F888260022C3F818263F22C3F81426CA
:103C20004FF08053D3F83021511C09BF4FF070433F
:103C3000D3F8343193F8E02FD3F8E83F08BFC3F34B
:103C40000313062A4DD1033B042B03D8644AD35CEB
:103C5000002B46D04FF08052624BD2F80414C3F8C8
:103C60002015D2F80814C3F82415D2F80C14C3F8A0
:103C70002815D2F81014C3F82C15D2F81414C3F870
:103C80003015D2F81814C3F83415D2F81C14C3F840
:103C90004015D2F82014C3F84415D2F82414C3F800
:103CA0004815D2F82814C3F84C15D2F82C14C3F8D0
:103CB0005015D2F83014C3F85415D2F83414C3F8A0
:103CC0006015D2F83814C3F86415D2F83C14C3F860
:103CD0006815D2F84014C3F86C15D2F84424C3F820
:103CE000702503F0D7FD48B14FF080534FF080426C
:103CF000D3F8583203F04F03C2F8E43E03F0CAFD94
:103D000048B14FF08043D3F80024D20744BF6FF08E
:103D10000102C3F800244FF08053D3F83021062A63
:103D200026D1D3F83431033B042B02D82E4AD35C7E
:103D300063B12E4AD2F83C3743F48063C2F83C3773
:103D40004FF08053D3F83031062B11D14FF0805310
:103D5000D3F83431033B042B02D8254AD35C3BB162
:103D60004FF01023D3F808224FF08043C3F85825B2
:103D70004FF01023D3F80022002A03DBD3F80432DB
:103D8000002B22DA1B4901234FF01020C1F8043523
:103D90001524FFF7EFFEC0F80042FFF7EBFEC0F876
:103DA0000442FFF7E7FE0023C1F80435FFF7E2FE07
:103DB000BFF34F8F0849104BCA6802F4E062134307
:103DC000CB60BFF34F8F00BFFDE710BD0030014057
:103DD00000C007400DF0ADBA00ED00E0005000401B
:103DE000048F000000C00040FF8E00000010004063
:103DF000FA8E000000E001400400FA0530B50468C6
:103E0000CCB1BFF35B8FB4FA84F3C3F11F03DBB211
:103E100001229A4024EA020250E8005FA54204D140
:103E200040E8002CBCF1000FF6D1BFF35B8FE6D168
:103E300002480B7030BD0248FCE700BF0000AD0B2C
:103E40000200AD0B10B50368CB40DB0714D401238F
:103E50008B400268BFF35B8F43EA020150E8004FDA
:103E6000944204D140E8001CBCF1000FF6D1BFF32E
:103E70005B8FEED1014810BD0148FCE70000AD0B9F
:103E80000400AD0B014BC3F80405704700F001407E
:103E9000F7B50546F8B101281BD104224FF4807311
:103EA00001464FF0804003440244C0F80813002646
:103EB000012111601E608D421B688DF8071008BF3C
:103EC0000DF1070642F210744FF0804745B1012D05
:103ED00028D003B0F0BD0C224FF482730221E0E73A
:103EE000D7F8183403F480333EB9002BF1D0012009
:103EF00003F0DFFC013CF3D1EBE7D7F8182402F024
:103F000003023260002BE4D09DF80700012803D1A2
:103F100003F0CFFC013CD9D1012DDAD10C4B0022AA
:103F20005A71D6E7D7F80C3403F480333EB9002B2E
:103F3000F4D0012003F0BDFC013CF3D1EEE7D7F84B
:103F40000C2402F001023270002BDDD1E6E700BF45
:103F5000A40E0020044B1A7922B9012218609A801D
:103F60000248704702487047A40E00200000AD0BC5
:103F70000C00AD0B08B5074B1B682BB10020FEF7FA
:103F8000E7F808B9FEF7C2F84FF080430022C3F803
:103F9000182508BDA40E002038B5B0B1012855D1B0
:103FA0004FF080420023C2F80031D2F80021304A9D
:103FB00003F18043012119602E4B1B68002B50D068
:103FC0004FF08043C3F8040340E04FF08043D3F840
:103FD0001814D3F81824C8032AD502F00303012BC0
:103FE00004D013B10020FFF753FF00234FF08042AD
:103FF000C2F818350023C2F80431D2F804311E4A41
:10400000D2F8FC0040F08073C2F8FC301B4B1C68F7
:1040100044F0010119605D685968491BB1F50A5FF8
:10402000FAD31C60C2F8FC000823154A0220BFE73F
:10403000D3F81424D107D8D5D3F81C249207D1D4AF
:104040000C4A12681AB10222C3F8042338BDD3F80F
:104050000421002AFBD00022C3F80421D3F8043144
:10406000F4E71368002BFCD0002313601368EDE71E
:1040700000010040A40E002000ED00E0001000E070
:1040800004010040F8B54FF080431C4ED3F80443C0
:104090000125002704B9F8BDB4FA84F0C0F11F006F
:1040A000830003F580739BB203F1804305FA00F2AD
:1040B0001968D2B224EA02040029EBD01F601B6801
:1040C0004FF08043012AC3F8082305D0022A08D004
:1040D0003368C0B29847DDE77379002BDAD172718B
:1040E000F6E7D3F81814D3F818148907F0D1C3F8F9
:1040F0001855C3F804239D60CCE700BFA40E002030
:1041000070B500F108030C4C34F81330DA0505469D
:104110000E4607D5C3F3432304EBC30254F83330F0
:1041200052689847A3682BB1E26831462846BDE83B
:104130007040184770BD00BFA005002010B4C0B289
:10414000114A083032F81030D9051BD5C3F343218A
:1041500023F4F85322F8103002F10E04002034F852
:10416000023F13F4807F03D0C3F34323994209D065
:1041700001302028F3D1002342F83130034810BC2D
:10418000FFF760BE10BC7047A0050020F8050020B6
:10419000F0B5054600200446012607468C420BD1A7
:1041A000114BD3F87C2132B10022C3F87C21D3F823
:1041B0007C3140F00040F0BDE3B29B0003F580721B
:1041C0009B0806FA03F31D420BD002F1804202F570
:1041D000C042D2F800C0BCF1000F02D017601268D4
:1041E00018430134DAE700BF00600040C0B2064B5C
:1041F000083033F81000830643BF400B800000F501
:1042000080704FF4BE707047A0050020CBB202460C
:10421000083308460C4931F81330990611D599072F
:104220000FD410685B0B01219940C0F80813126885
:1042300002EB8303D3F8102522F00302C3F8102504
:104240007047002103F098BBA0050020F7B5CDB260
:10425000174E0835074636F81530DB070C4624D5CF
:10426000FFF7D4FF36F815309A0606D55B0B3A688F
:1042700003F5A273002142F823102046FFF75EFFEA
:10428000002301A826F81530019403F022FB019BBE
:1042900000EB8300074BD0F80027134043F00203E4
:1042A000C0F80037044803B0F0BD0448FBE700BF86
:1042B000A0050020F0F8FCFF0000AD0B0400AD0BE2
:1042C0002DE9FF41136807460C461546FBB1CEB2F7
:1042D000DFF83C81083638F8162002F02202222A44
:1042E00022D00022CDE900228DF80E208DF80F207B
:1042F0000DF10E010DF10F02204603F0F4FA38F82B
:10430000163023F0020343F0010328F816306B68DF
:104310004BB393F800C05A683D4EE3B2083336F809
:104320001310880702D5B2B13A481FE021F02001EE
:10433000C904C90C26F813106AB1BCF1030FF3D8F5
:104340006A68386852681278BCF1000F11D102F522
:10435000A27240F822C036F8132022F01C0242EA72
:104360008C0226F81320AB6843BB2B4804B0BDE891
:10437000F08100EB820041EA4231D0F810E52EF0E6
:10438000030EC0F810E53F6807EB820741F02001FB
:10439000D7F8100526F8131020F4473020F44070A9
:1043A000C7F810052002D7F810E500F4F85040EAED
:1043B0000C4040EA0E00C7F81005CCE7D3E90067CF
:1043C0002046FFF7BBFE002ECFD0114DD5E90023CC
:1043D000964203D19F4201D1002209E00F480DF11E
:1043E0000F01FFF70BFD0C4B9842BFD19DF80F203A
:1043F00045F83260E4B205EBC20308345F6035F87B
:10440000143043EA422343F4807325F81430ACE7B8
:10441000A00500200400AD0B0000AD0BF805002046
:104420002DE9FF4107460C461E4612B3CDB2DFF818
:10443000D080083538F81530980701D4990621D472
:1044400013F01C0F02D05378012B1BD001238DF8E1
:104450000F300023CDE900230DF10F01931C2046FE
:10446000013203F040FA38F8153043F0030328F81E
:104470001530002E42D0E1B2214D083135F811201F
:10448000930703D41F4804B0BDE8F08196F800E01C
:10449000D7F800C022F020020EF5A270D20400234B
:1044A000D20C4CF8203025F8112096F801C0BCF150
:1044B000000F23D03868B67800EB8E004FEA0C4C22
:1044C000D0F8103523F4981323F4F853C0F81035BE
:1044D000230203F4F8530CF4403C3605D0F8107571
:1044E00043EA0C0306F4801642EA4E32334342F0AC
:1044F00020023B4325F81120C0F810350248C2E7DE
:10450000A00500200400AD0B0000AD0B014BC3E97A
:1045100002127047A0050020C9B20831044B33F8DD
:104520001130990643BF5B0B024813700248704775
:10453000A00500200000AD0B0400AD0B70B5164DBA
:1045400095F8604006462CBB2146402205F110003C
:1045500003F0FDFC30682E6D21468E420ED1002303
:10456000C0F87C31D0F87C3140F30730FDF7CEFD48
:1045700001230A4885F86030AB6570BDCBB29B0063
:1045800003F580727C2B08BF845001F1010108BF44
:104590008358E2E70248F0E7A00500200000AD0BD9
:1045A0000C00AD0B034B93F86000003818BF0120DE
:1045B000704700BFA00500200148FFF743BC00BFC3
:1045C000F40500200148FFF719BC00BFF4050020E6
:1045D00073B503680C46D3F804130029A4BF4FF049
:1045E0000041C3F80413E3B21D49083331F8133016
:1045F00099061AD513F0020617D15B0B9C000568CB
:1046000004F580716E50695801682144D1F8104555
:1046100044F00104C1F810452AB10168012202FAF0
:1046200003F3C1F8043302B070BDC3F38203042B5B
:1046300012D0052B12D001A8019403F04AF9019A77
:10464000D0F81035D34003F00103991C204602B086
:10465000BDE8704003F090B90321F7E70221F5E7C8
:10466000A00500202DE9F347544B554FD3F8040320
:10467000396DC0B240F00040FFF78AFD051E18DA20
:104680000023F96D0093684603F085F94FF00108A7
:1046900097F85C30DA075AD4396D4FF00040FFF7D5
:1046A00077FDF96D684603F076F90028F0D125F022
:1046B00000450124002D69D102B0BDE8F08794FACD
:1046C000A4F4B4FA84F4E00804F1080304F0070247
:1046D00037F813901DF80030019408FA02F223EA2B
:1046E00002030DF8003001A803F0F3F8019B03F575
:1046F000E0734FEA990150F82360C9F3820A4B072F
:10470000D146C6F3014626D520465146FFF7F8FCB0
:1047100001A8019403F0DDF8019B03F5E073F6B204
:1047200050F82330C3F301439E4207D100212046B5
:1047300003F022F93146204603F01EF901A8019446
:1047400003F0C7F8019B08FA03F3C0F82035009C7A
:10475000002CB4D1A0E7022E0CD10321204603F097
:104760000BF90AF00503012BE8D149462046FFF773
:10477000C7FCE3E70221204603F0FEF8BAF1030F7D
:10478000F3D0032EDAD1BAF1020FEDE795FAA5F3D3
:10479000B3FA83F304FA03F29B0003F1804303F5B9
:1047A000C04325EA0205D3F81005D3F81015C0F36D
:1047B0000420C1F30141FFF7A3FC7BE70060004048
:1047C000A005002001460148FFF718BB04060020A1
:1047D00007B5019001A803F0F3F8019B00EB8300FB
:1047E000054BD0F80027134043F00303C0F800370F
:1047F00003B05DF804FB00BFF0F8FCFF73B5CB7BA2
:104800000446002B38D10B7B0878012B77D803F0B6
:10481000EEF80B78019301A803F0D2F8019B00EBAE
:1048200083003C4BD0F80027134043F00103C0F84D
:1048300000374878FF2804D003F0D9F84878FFF70C
:10484000C7FF8B78FF2B0FD001A88D7B019303F05E
:10485000B7F8019B00EB83002E4BD0F800271340E4
:1048600043EA8503C0F80037C878FF2804D003F076
:10487000B1F8C878FFF7ACFF23792748CA78282514
:1048800005FB03039A770B7C9BB94B7825680E7860
:10489000FF2B18BF1A468B78C5F8086508BF4FF084
:1048A000FF32FF2B08BF4FF0FF33C5F80C25C5F8CA
:1048B000103523688A68C3F824254B7B0A7B25685A
:1048C000003B18BF0123022A1CD0032A1DD0012A55
:1048D00001D143F00203C5F85435237949792822E0
:1048E00002FB0303D97723795343C35883B120686C
:1048F00040F3073002B0BDE87040FDF707BC03F09D
:1049000069F886E743F00403E5E743F00603E2E7CE
:1049100002B070BDF0F8FCFFAC0E002007B50190AE
:1049200001A803F04DF8019B00EB8300054BD0F884
:104930000027134043F00203C0F8003703B05DF8CE
:1049400004FB00BFF0F8FCFF2DE9F04190F8048073
:10495000144C4FF0280C0CFB08FC04EB0C0607462B
:1049600096F81CE0BEF1000F19D144F80C207360DA
:1049700041B1CB7B86F82530CB78B3774B79F37791
:10498000FFF73CFF3A6808480123C2F800352822A7
:1049900002FB0844002262772377BDE8F0810348D8
:1049A000FBE700BFAC0E00200000AD0B0C00AD0B10
:1049B00070B50679194C056828237343E35833B161
:1049C00045F30730FDF7B0FB0423C5F80833002397
:1049D000C5F80035282303FB064393F82530BBB9FF
:1049E000D5F80805FFF79AFFD5F81005421C01D04D
:1049F000FFF794FFD5F80C05431C01D0FFF78EFF9D
:104A0000282303FB0643987FFF2801D0FFF786FF8A
:104A1000282303FB06440023237770BDAC0E00203F
:104A20002DE9F8430779394C28237B439046E21857
:104A30000E46517F8146002966D1E3580BB1012310
:104A4000537796E80F00282505FB074505F10C0C68
:104A50008CE80F00A87F0023FF2885F8243001D0C0
:104A600002F0C5FF2823B8F1000F06D003FB07436F
:104A7000002227485A77BDE8F883D9F8005003FB95
:104A800007430422C5F80823C3F82080C5F808812D
:104A9000D5F8082172689AB133681B78C5F81C35BF
:104AA0007368012B0ED933685B78C5F81C35282351
:104AB0007B43E65876B10423C5F804331548DAE79A
:104AC000DB7FEBE7F368012BF1D9282303FB0743D6
:104AD000DB7FEAE707EB870104EBC101D5F808317A
:104AE000002BFBD0C5F808612846D5F8083102F044
:104AF0008BFF0028F2D1282303FB0744A07FFF2867
:104B0000DCD002F067FFD9E70348B4E7AC0E002021
:104B10000300AD0B0000AD0B0B00AD0B02494FF0D5
:104B2000402002F0A4BF00BFAC0E002001490248A3
:104B300002F09DBFD40E00200030024008B5124B99
:104B4000A8220021184603F002FA032202610F494D
:104B500042610F4A8161C2614FF4806202620022A9
:104B600082624262C26201660A4941661021816620
:104B7000094902670346C266426711F8010D98545D
:104B80000132102AF9D108BD100400200E8F000058
:104B90001000002000000020278F00002DE9F84FB2
:104BA000DFF87C80182606FB008E00FB0666464474
:104BB000DEF82440DEF828C07368A445074689461D
:104BC000154603EB040022D8DEF820B0ABEB040A54
:104BD0000AF1FF339A4203D803F0ABF92C440FE0FB
:104BE00063449A4219D852462C4403F0A2F9B4EB1C
:104BF0000B0405D07068224609EB0A0103F099F90D
:104C0000182303FB078301205C62BDE8F88F0CF1D9
:104C1000FF3CACEB040C9445DED20020F5E700BF6E
:104C200010040020034B182202FB00339A6A586AD2
:104C3000801A70471004002010B4084A0849002365
:104C4000C85C12F8014D844204D10133102BF7D116
:104C500010BC704710BCFFF771BF00BF278F00006A
:104C60001004002003484FF0FF324FF0FF3300F0F4
:104C700029BB00BF58060020014800F09BBB00BFC5
:104C80005806002008B5044A0448012102F055FBEB
:104C90006FF0040008BD00BF288F0000BC82000038
:104CA00070B50546466800F01BF8044688B9B3693C
:104CB00043B1284600F090F8002808DABDE87040BB
:104CC000FFF7E0BF044A0548012102F036FB204609
:104CD00070BD6FF01504FAE7488F0000BC82000039
:104CE00038B545680446286802F060FF38B90948BD
:104CF000094A012102F021FB6FF0120038BDE8687B
:104D000018B102F053FF0028F1D0044B00201C60C2
:104D1000F4E700BFBC820000728F00001C0F00206F
:104D2000034B1B68596851F8040B83685B6818478C
:104D30001C0F002030B50F4B89B01B68CDF808D090
:104D40005B680592CDE90002012404AACDE9034184
:104D5000CDE90624194651F8040B836802AA1D68A0
:104D600006ABA84720B1044A0448214602F0E5FA00
:104D700009B030BD1C0F00208A8F0000BC820000EB
:104D800030B403460A4600681979836805699C694E
:104D90007CB1130206D52D6801238B402B4218BF2E
:104DA00082F0C062054BA446134030BC02F0B072E2
:104DB00060476FF0570030BC704700BF40000006EE
:104DC000014B1878704700BF850F0020014B186811
:104DD000704700BF200F0020F8B5456806690446FB
:104DE00000AFA86902F0E2FEAA690346C0B92068D4
:104DF00011686C468AB06A462E4DD1612E49116207
:104E00002E49C2E9055042F8101F2D484FF4215198
:104E1000FCF77AFAA5466FF012042046BD46F8BDAD
:104E2000284B297F1970284B34601A60274B736117
:104E3000EB8BA869297F43F48032D0F810C0D0F8FA
:104E400008E0DCF8004013F0010F4FF0010303FA13
:104E500001F314BF234324EA0303CCF80030DEF847
:104E600000309847041E05DA194A1548012102F05E
:104E700064FAD2E72B7F1748012202FA03F3C6E94E
:104E80000203A8698368DB69311D3BB9124A0C48EB
:104E9000012102F052FA6FF00404BEE7984700289F
:104EA000F4DB4FF0B86105F11800FFF769FF044625
:104EB000B3E700BFA48F000000020103040000025A
:104EC000BC820000850F0020200F0020F37A000034
:104ED000BF8F0000C97A0000D88F00002DE9F34190
:104EE0004FF0FF33009300260127FFF76FFF0546C1
:104EF000FFF766FFD5F810800446AB6801A95B6830
:104F000028469847A8B9D8F80020019B07FA04F46E
:104F1000534023420DD10B4CFFF7A4FEA36833434B
:104F2000A360FFF7A9FEA06802F03AFE02B0BDE858
:104F3000F081042269461A2002F02CFE009B1E43D9
:104F4000D3E700BF240F002010B5FFF7C7FF044BC5
:104F50005A681AB1BDE810405B68184710BD00BF21
:104F6000240F002010B50446FCF7EAF80348044A71
:104F7000012102F0E2F9204602F023FEF482000053
:104F8000F48F00002DE9F843044600AF0D46EFF31F
:104F90001188202383F31288BFF36F8F0428294AD6
:104FA00098BF294B9668117C94BF53F82030274B4B
:104FB000E9468AB06A462648C2E9073140F2013321
:104FC0009384244BC2E9050442F8103F2248002391
:104FD0004FF43151FCF798F9CD4645B1EB69C3F375
:104FE000080323B11D4A1C48012102F0A6F92EB185
:104FF000304602F068FE08B1037803B91848E94664
:105000008AB06A46174BD061C2E9053640F20133D7
:105010001384154B42F8103F00230F484FF41151F1
:10502000FCF772F92946CD462046FFF79BFF88F32F
:105030001188BFF36F8F3046FDF70EF8BD46BDE80F
:10504000F88300BF340F002080850000039000002B
:105050001990000005000001F4820000419000005A
:1050600011900000629000000400000138B5094B67
:1050700053F82040013053F82050A54200D838BDE5
:10508000636823B1204602F0A4FD0834F5E72368E5
:105090009847FAE79485000070B52B4B2B4C2C4DAC
:1050A000012286B003201A70FFF7E0FFFCF786FCB0
:1050B00002F0ABFD0420FFF7D9FF2646AE4204F113
:1050C000300410D300F07EFD204C224EAC4226D39B
:1050D00000F08CFDFBF774F91F4A137B23F00103EA
:1050E000137306B070BD54F80C3C059354F8103C93
:1050F000049354F8143C039354F8183C029354F866
:105100001C3C019354F8203C009354E90A2354E9D1
:105110000C0100F06DFB54F8303C5E65CDE7D4E93E
:105120000A23B3F1FF3F08BFB2F1FF3F05D052EAB7
:105130000301206803D100F019FE3034C6E7314680
:10514000183000F0A9FFF8E7860F00206082000009
:1051500060820000B97D0000E00B002008B5034824
:10516000034A0021121A02F04CFD08BD80060020FF
:10517000880F002070B5002386B00122CDE90423FA
:10518000134E144D01930F22CDE90232124914231C
:1051900003FB005506EBC01604464FF4C07000FB3D
:1051A00004110E4B00954FF4A072304600F020FB26
:1051B000737B0B4AEE6023F0040373734FF40463B4
:1051C00004FB033313442C746B6006B070BD00BF46
:1051D000600B0020340F0020401B00200D7C0000DD
:1051E00000130020BFB50020FFF740FF2D4B83F3D5
:1051F00008882D4D2D4E6B692D4F43F400736B6164
:105200000024E02385F82230EC772C766C76AC769F
:1052100085F820406B6A43F4E0236B6285F82340F5
:10522000FCF796FEFDF726F84FF0FF33AB62EB621A
:10523000FDF7FAF8FDF742F8FBF7EEFE1D4BB36001
:1052400040F201129A81C3E91844DC6602F0ADFC19
:105250000120FFF70BFF0220174DFFF707FF00F0BB
:10526000F9FC164B75610593012315490094CDE9AE
:1052700003434FF480623B46CDE90144284600F0E9
:10528000B7FA6A7B064622F0040228466A7302F0E7
:1052900056FD2046FFF76EFF3A4631462846FCF79A
:1052A000CBFF00BF401B002000ED00E0340F0020CA
:1052B00099500000600C0020E00B0020C49000001A
:1052C000C01C00202DE9F341044617461E46EFF3AB
:1052D0001188202383F31288BFF36F8FC368334A8A
:1052E0007BB180689168884219D057EA060318D1CB
:1052F00088F31188BFF36F8F6FF00F0002B0BDE825
:10530000F081916891F90E1021610133E360936897
:10531000A36088F31188BFF36F8F0020EEE7216947
:10532000F2E791F90E1090F90E309942A8BF194694
:105330006FF07E029142B8BF11468B422DDD02F024
:1053400070FC0546CDE9007619482246414600F03A
:1053500099FB0028E1D0EFF31186202383F3128814
:10536000BFF36F8FA068D0B1236821699C420AD037
:105370004BB193F90E309942A8BF19466FF07E03E6
:105380009942B8BF194602F04CFC40B1084831467A
:1053900000F0F2FB6FF00A00B0E70025D2E7002D25
:1053A000F4D186F31188BFF36F8FF3E7340F002039
:1053B000870F0020F8B583680546002B3FD0234AAD
:1053C000926893423ED1C368012B03D9013BC3606D
:1053D0000020F8BDEFF31187202383F31288BFF379
:1053E0006F8F0169806802F01CFC2C68AC4207D109
:1053F0000023C5E9023387F31188BFF36F8FE7E716
:10540000002CF5D0D4E9003213605A60637B00268B
:1054100023F002036373C4E90066A66004F1180078
:1054200002F038FDAC6094F90E302B612046A6677F
:1054300002F085FC0648394600F09EFBC8E76FF095
:105440001500C6E74FF0FF30C3E700BF340F002060
:10545000870F002070B5EFF31186202383F31288A5
:10546000BFF36F8F0468A0421AD0CCB1D4E90032E8
:1054700013605A60637B002523F002036373C4E961
:105480000055A56004F1180002F004FD2046A56750
:1054900002F055FC31460848BDE8704000F06CBB96
:1054A000D0E902329A4218BF0133836086F3118833
:1054B000BFF36F8F70BD00BF870F002013B5EFF3F0
:1054C0001181202484F31288BFF36F8F846844B164
:1054D000013C846081F31188BFF36F8F002002B01C
:1054E00010BD52EA030406D181F31188BFF36F8F18
:1054F0006FF00F00F3E7CDE900230246014800F00A
:10550000C1FAECE7870F00202DE9F0410546EFF3E3
:105510001188202383F31288BFF36F8F00266FF06A
:105520000A072C68A54214D09CB1D4E9003213605C
:105530005A60637BA66023F00203C4E900666373CC
:1055400004F1180002F0A6FCA767204602F0F7FB62
:10555000E7E70023AB6041460248BDE8F04100F0B8
:105560000BBB00BF870F00202DE9FF414F4E0446C3
:105570002027EFF3118887F31288BFF36F8FD4F8D9
:105580008050F5B9022104F1980002F05EFB00287A
:1055900068D004F1900500220121284602F03FFC6A
:1055A0000028F8D1002302934FF0FF324FF0FF3371
:1055B000CDE90023414604F188023D4800F08AFC11
:1055C000D7E7D4F884202B68C4F88030954208BF10
:1055D000C4F88430D4F8983043F00203C4F898300B
:1055E000EB6823F0040343F00103EB606B6888F37E
:1055F0001188BFF36F8F28469847EFF3118887F320
:105600001288BFF36F8FEB68D80623F0010236D4FF
:10561000EA60EB689A0716D5306823F00203EB6066
:1056200088B10368002170B14268954235D10368A2
:1056300069BB72683360824200D17360002340F816
:10564000083BFFF707FFD4F8983023F00203C4F8B3
:10565000983088F31188BFF36F8FDB0589D400F091
:1056600001FB86E7D4F89830D9069BD5C4F898009A
:1056700088F31188BFF36F8F04B0BDE8F08123F089
:105680001103EB6005F11000FFF7E4FEC1E70B60CA
:105690007368834208BF7160D0E723B11A6801467E
:1056A00018461346BFE71A46F9E700BF540F00201B
:1056B000870F0020F8B5C3689A0704460F46C3F366
:1056C00040062CD45B071AD40B680BB983680B60B7
:1056D000E368DD0744BFA3683B603D684CBF02261A
:1056E0000126002D3AD01F4B9B68AB420AD0D5F85B
:1056F0009830D807C3F3800214D46FF01206002349
:105700003B6025E002F0D6FAD5F898300028F0D1B9
:10571000D907C3F3C002F0D552B15B0708D46FF0CC
:105720000F06ECE7002AFAD1C3F3C003002BF6D131
:1057300000232360D5F8843063B9C5E920442846A6
:1057400002F08EFAE36843F00403E3603B68A36071
:105750003046F8BD1C60C5F88440F0E76FF01506D0
:10576000CDE700BF340F00200146014802F092BA95
:10577000000D0020F0B589B004460020C4E92000E7
:105780000E9D04F18800C4E9220004F19000C4E9F0
:1057900024004DB32879002840F2011008BF0120F1
:1057A000C4F8980000204FF0FF364FF0FF37CDE9E6
:1057B0000330CDE90100CDE906670C4B009420468B
:1057C00000F062F855B1296811B1204602F078FA6C
:1057D0006B791BB1237B43F001032373204609B08F
:1057E000BDE8F04000F0C2BA0120D9E769550000D9
:1057F0002DE9F043073285B022F007020E461F461E
:105800001099017300F158037F32C0E91633044642
:10581000002322F03F020421836041733F2A0F9846
:10582000A073C4E90633E37306F14009A2F140080E
:1058300005D883F31188BFF36F8F084602DFB518D0
:1058400029462046FCF728F907300E9B20F0070078
:10585000A066C4E9189802930D9B01932D1A0C9B26
:1058600000932A463B4631462046FCF7B3FC002312
:105870006365044B9B6803B1DB6EE366284605B0A5
:10588000BDE8F083340F0020F0B587B00025059502
:10589000109D04950F9D03950E9D0295DDE91276EE
:1058A0000D9D01950C9D00950446FFF7A1FFB6F1F3
:1058B000FF3F08BFB7F1FF3F05D056EA070305D108
:1058C000204600F053FA204607B0F0BD03493A469F
:1058D000334604F1180000F0DFFBF4E7B97D000067
:1058E000094A93686FF00A019967084958674B683D
:1058F00043F080534B60002383F31188BFF36F8F15
:105900009368986F704700BF340F002000ED00E0EF
:1059100070B590F90D20437B002A39DBD90637D1C9
:105920008269002A34D11D4C63F07F032246437301
:1059300052F8183F93422CD1E169C0E90021086078
:10594000E06111E09942F8D01B68002BF5D090F986
:105950000E5093F90E60B542F4D0AE42F2DD5968B4
:10596000C0E9003108605860A569954200D005B9CA
:10597000E568A3685A7BD20604D1DA897F2A01D967
:10598000AA6942B1AB4202D0284600F0E3FA656151
:1059900070BDE169D9E76361FAE700BF340F002009
:1059A00038B590F90D20437B002A014604DA03F054
:1059B0007F03437302F089F90D4D2A46AB6852F814
:1059C000184F944200D004B9EC688B4207D05A7B40
:1059D000D20604D1DA897F2A01D9A2692AB1A34269
:1059E00002D0204600F0B6FA23466B6138BD00BFF6
:1059F000340F002070B590F90D20437B002A01463A
:105A000004DA03F07F03437302F05FF94B7B1C4C15
:105A100063F07F0322464B7352F8183FE0699342CC
:105A200007D1C1E900200160E16111E09842F8D09E
:105A30001B68002BF5D091F90E5093F90E60B5421A
:105A4000F4D0AE42F2DD5868C1E90030016059601F
:105A5000A569A368954200D005B9E5688B4207D0D7
:105A60005A7BD20604D1DA897F2A01D9AA692AB1E0
:105A7000AB4202D0284600F06DFA2B46636170BD40
:105A8000340F0020F8B5124B0C461146114A9868A5
:105A90001060DDE90676EFF31182202282F312888E
:105AA000BFF36F8F9D68284602F021F9B6F1FF3FE2
:105AB00008BFB7F1FF3F06D007493A46334605F124
:105AC000180000F0E9FA2046BDE8F840FFF708BFEB
:105AD000340F00205C0F0020B97D0000F8B50446AB
